{
  "_format": "hh-sol-artifact-1",
  "contractName": "PostDonation",
  "sourceName": "contracts/PostDonation.sol",
  "abi": [
    {
      "anonymous": false,
      "inputs": [
        {
          "indexed": false,
          "internalType": "uint256",
          "name": "postId",
          "type": "uint256"
        },
        {
          "indexed": false,
          "internalType": "address",
          "name": "donor",
          "type": "address"
        },
        {
          "indexed": false,
          "internalType": "uint256",
          "name": "amount",
          "type": "uint256"
        }
      ],
      "name": "DonationAdded",
      "type": "event"
    },
    {
      "anonymous": false,
      "inputs": [
        {
          "indexed": false,
          "internalType": "uint256",
          "name": "postId",
          "type": "uint256"
        },
        {
          "indexed": false,
          "internalType": "address",
          "name": "author",
          "type": "address"
        },
        {
          "indexed": false,
          "internalType": "string",
          "name": "username",
          "type": "string"
        },
        {
          "indexed": false,
          "internalType": "string",
          "name": "content",
          "type": "string"
        }
      ],
      "name": "PostCreated",
      "type": "event"
    },
    {
      "inputs": [
        {
          "internalType": "string",
          "name": "_username",
          "type": "string"
        },
        {
          "internalType": "string",
          "name": "_content",
          "type": "string"
        }
      ],
      "name": "createPost",
      "outputs": [],
      "stateMutability": "nonpayable",
      "type": "function"
    },
    {
      "inputs": [
        {
          "internalType": "uint256",
          "name": "_postId",
          "type": "uint256"
        }
      ],
      "name": "donateToPost",
      "outputs": [],
      "stateMutability": "payable",
      "type": "function"
    },
    {
      "inputs": [
        {
          "internalType": "uint256",
          "name": "_postId",
          "type": "uint256"
        }
      ],
      "name": "getPostDetails",
      "outputs": [
        {
          "internalType": "address",
          "name": "",
          "type": "address"
        },
        {
          "internalType": "string",
          "name": "",
          "type": "string"
        },
        {
          "internalType": "string",
          "name": "",
          "type": "string"
        },
        {
          "internalType": "uint256",
          "name": "",
          "type": "uint256"
        },
        {
          "internalType": "uint256",
          "name": "",
          "type": "uint256"
        }
      ],
      "stateMutability": "view",
      "type": "function"
    },
    {
      "inputs": [],
      "name": "postCount",
      "outputs": [
        {
          "internalType": "uint256",
          "name": "",
          "type": "uint256"
        }
      ],
      "stateMutability": "view",
      "type": "function"
    },
    {
      "inputs": [
        {
          "internalType": "uint256",
          "name": "",
          "type": "uint256"
        }
      ],
      "name": "posts",
      "outputs": [
        {
          "internalType": "address",
          "name": "author",
          "type": "address"
        },
        {
          "internalType": "string",
          "name": "username",
          "type": "string"
        },
        {
          "internalType": "string",
          "name": "content",
          "type": "string"
        },
        {
          "internalType": "uint256",
          "name": "totalDonations",
          "type": "uint256"
        }
      ],
      "stateMutability": "view",
      "type": "function"
    }
  ],
  "bytecode": "0x608060405234801561001057600080fd5b50610fa5806100206000396000f3fe60806040526004361061004a5760003560e01c80630b1e7f831461004f57806317906c2e1461008f578063392338f5146100ba5780639fc226f4146100e3578063b68603b614610124575b600080fd5b34801561005b57600080fd5b5061007660048036038101906100719190610919565b610140565b6040516100869493929190610a25565b60405180910390f35b34801561009b57600080fd5b506100a46102a0565b6040516100b19190610b59565b60405180910390f35b3480156100c657600080fd5b506100e160048036038101906100dc91906108ad565b6102a6565b005b3480156100ef57600080fd5b5061010a60048036038101906101059190610919565b610420565b60405161011b959493929190610a78565b60405180910390f35b61013e60048036038101906101399190610919565b610630565b005b60016020528060005260406000206000915090508060000160009054906101000a900473ffffffffffffffffffffffffffffffffffffffff169080600101805461018990610d44565b80601f01602080910402602001604051908101604052809291908181526020018280546101b590610d44565b80156102025780601f106101d757610100808354040283529160200191610202565b820191906000526020600020905b8154815290600101906020018083116101e557829003601f168201915b50505050509080600201805461021790610d44565b80601f016020809104026020016040519081016040528092919081815260200182805461024390610d44565b80156102905780601f1061026557610100808354040283529160200191610290565b820191906000526020600020905b81548152906001019060200180831161027357829003601f168201915b5050505050908060030154905084565b60005481565b60008251116102ea576040517f08c379a00000000000000000000000000000000000000000000000000000000081526004016102e190610af9565b60405180910390fd5b600081511161032e576040517f08c379a000000000000000000000000000000000000000000000000000000000815260040161032590610b39565b60405180910390fd5b60008081548092919061034090610da7565b9190505550600060016000805481526020019081526020016000209050338160000160006101000a81548173ffffffffffffffffffffffffffffffffffffffff021916908373ffffffffffffffffffffffffffffffffffffffff160217905550828160010190805190602001906103b892919061078d565b50818160020190805190602001906103d192919061078d565b50600081600301819055507f5475621b07408f75d49c828caa5aeacb3a5e98d3497e75730dc184677504401c6000543385856040516104139493929190610b74565b60405180910390a1505050565b600060608060008060008611801561043a57506000548611155b610479576040517f08c379a000000000000000000000000000000000000000000000000000000000815260040161047090610ad9565b60405180910390fd5b60006001600088815260200190815260200160002090508060000160009054906101000a900473ffffffffffffffffffffffffffffffffffffffff16816001018260020183600301548460040160003373ffffffffffffffffffffffffffffffffffffffff1673ffffffffffffffffffffffffffffffffffffffff1681526020019081526020016000205483805461051090610d44565b80601f016020809104026020016040519081016040528092919081815260200182805461053c90610d44565b80156105895780601f1061055e57610100808354040283529160200191610589565b820191906000526020600020905b81548152906001019060200180831161056c57829003601f168201915b5050505050935082805461059c90610d44565b80601f01602080910402602001604051908101604052809291908181526020018280546105c890610d44565b80156106155780601f106105ea57610100808354040283529160200191610615565b820191906000526020600020905b8154815290600101906020018083116105f857829003601f168201915b50505050509250955095509550955095505091939590929450565b60008111801561064257506000548111155b610681576040517f08c379a000000000000000000000000000000000000000000000000000000000815260040161067890610ad9565b60405180910390fd5b600034116106c4576040517f08c379a00000000000000000000000000000000000000000000000000000000081526004016106bb90610b19565b60405180910390fd5b6000600160008381526020019081526020016000209050348160030160008282546106ef9190610c70565b92505081905550348160040160003373ffffffffffffffffffffffffffffffffffffffff1673ffffffffffffffffffffffffffffffffffffffff16815260200190815260200160002060008282546107479190610c70565b925050819055507f07ed9a4039cc285a25b91d0a6f5601a45e05275001c5ddf74de4f60148c8ee0b82333460405161078193929190610bc7565b60405180910390a15050565b82805461079990610d44565b90600052602060002090601f0160209004810192826107bb5760008555610802565b82601f106107d457805160ff1916838001178555610802565b82800160010185558215610802579182015b828111156108015782518255916020019190600101906107e6565b5b50905061080f9190610813565b5090565b5b8082111561082c576000816000905550600101610814565b5090565b600061084361083e84610c23565b610bfe565b90508281526020810184848401111561085b57600080fd5b610866848285610d02565b509392505050565b600082601f83011261087f57600080fd5b813561088f848260208601610830565b91505092915050565b6000813590506108a781610f58565b92915050565b600080604083850312156108c057600080fd5b600083013567ffffffffffffffff8111156108da57600080fd5b6108e68582860161086e565b925050602083013567ffffffffffffffff81111561090357600080fd5b61090f8582860161086e565b9150509250929050565b60006020828403121561092b57600080fd5b600061093984828501610898565b91505092915050565b61094b81610cc6565b82525050565b600061095c82610c54565b6109668185610c5f565b9350610976818560208601610d11565b61097f81610e7d565b840191505092915050565b6000610997600f83610c5f565b91506109a282610e8e565b602082019050919050565b60006109ba601883610c5f565b91506109c582610eb7565b602082019050919050565b60006109dd602683610c5f565b91506109e882610ee0565b604082019050919050565b6000610a00601783610c5f565b9150610a0b82610f2f565b602082019050919050565b610a1f81610cf8565b82525050565b6000608082019050610a3a6000830187610942565b8181036020830152610a4c8186610951565b90508181036040830152610a608185610951565b9050610a6f6060830184610a16565b95945050505050565b600060a082019050610a8d6000830188610942565b8181036020830152610a9f8187610951565b90508181036040830152610ab38186610951565b9050610ac26060830185610a16565b610acf6080830184610a16565b9695505050505050565b60006020820190508181036000830152610af28161098a565b9050919050565b60006020820190508181036000830152610b12816109ad565b9050919050565b60006020820190508181036000830152610b32816109d0565b9050919050565b60006020820190508181036000830152610b52816109f3565b9050919050565b6000602082019050610b6e6000830184610a16565b92915050565b6000608082019050610b896000830187610a16565b610b966020830186610942565b8181036040830152610ba88185610951565b90508181036060830152610bbc8184610951565b905095945050505050565b6000606082019050610bdc6000830186610a16565b610be96020830185610942565b610bf66040830184610a16565b949350505050565b6000610c08610c19565b9050610c148282610d76565b919050565b6000604051905090565b600067ffffffffffffffff821115610c3e57610c3d610e4e565b5b610c4782610e7d565b9050602081019050919050565b600081519050919050565b600082825260208201905092915050565b6000610c7b82610cf8565b9150610c8683610cf8565b9250827fffffffffffffffffffffffffffffffffffffffffffffffffffffffffffffffff03821115610cbb57610cba610df0565b5b828201905092915050565b6000610cd182610cd8565b9050919050565b600073ffffffffffffffffffffffffffffffffffffffff82169050919050565b6000819050919050565b82818337600083830152505050565b60005b83811015610d2f578082015181840152602081019050610d14565b83811115610d3e576000848401525b50505050565b60006002820490506001821680610d5c57607f821691505b60208210811415610d7057610d6f610e1f565b5b50919050565b610d7f82610e7d565b810181811067ffffffffffffffff82111715610d9e57610d9d610e4e565b5b80604052505050565b6000610db282610cf8565b91507fffffffffffffffffffffffffffffffffffffffffffffffffffffffffffffffff821415610de557610de4610df0565b5b600182019050919050565b7f4e487b7100000000000000000000000000000000000000000000000000000000600052601160045260246000fd5b7f4e487b7100000000000000000000000000000000000000000000000000000000600052602260045260246000fd5b7f4e487b7100000000000000000000000000000000000000000000000000000000600052604160045260246000fd5b6000601f19601f8301169050919050565b7f496e76616c696420706f73742049440000000000000000000000000000000000600082015250565b7f557365726e616d652063616e6e6f7420626520656d7074790000000000000000600082015250565b7f446f6e6174696f6e20616d6f756e74206d75737420626520677265617465722060008201527f7468616e20300000000000000000000000000000000000000000000000000000602082015250565b7f436f6e74656e742063616e6e6f7420626520656d707479000000000000000000600082015250565b610f6181610cf8565b8114610f6c57600080fd5b5056fea2646970667358221220da7725a31662968e33a74a5e703f0266e719d14fc8de87dd0e0c31a1c3cb98e164736f6c63430008040033",
  "linkReferences": {},
  "deployedLinkReferences": {}
}