{
  "_format": "hh-sol-artifact-1",
  "contractName": "PostDonation",
  "sourceName": "contracts/PostDonation.sol",
  "abi": [
    {
      "anonymous": false,
      "inputs": [
        {
          "indexed": false,
          "internalType": "uint256",
          "name": "postId",
          "type": "uint256"
        },
        {
          "indexed": false,
          "internalType": "address",
          "name": "donor",
          "type": "address"
        },
        {
          "indexed": false,
          "internalType": "uint256",
          "name": "amount",
          "type": "uint256"
        }
      ],
      "name": "DonationAdded",
      "type": "event"
    },
    {
      "anonymous": false,
      "inputs": [
        {
          "indexed": false,
          "internalType": "uint256",
          "name": "postId",
          "type": "uint256"
        },
        {
          "indexed": false,
          "internalType": "address",
          "name": "author",
          "type": "address"
        },
        {
          "indexed": false,
          "internalType": "string",
          "name": "username",
          "type": "string"
        },
        {
          "indexed": false,
          "internalType": "string",
          "name": "content",
          "type": "string"
        }
      ],
      "name": "PostCreated",
      "type": "event"
    },
    {
      "inputs": [
        {
          "internalType": "string",
          "name": "_username",
          "type": "string"
        },
        {
          "internalType": "string",
          "name": "_content",
          "type": "string"
        }
      ],
      "name": "createPost",
      "outputs": [],
      "stateMutability": "nonpayable",
      "type": "function"
    },
    {
      "inputs": [
        {
          "internalType": "uint256",
          "name": "_postId",
          "type": "uint256"
        }
      ],
      "name": "donateToPost",
      "outputs": [],
      "stateMutability": "payable",
      "type": "function"
    },
    {
      "inputs": [
        {
          "internalType": "uint256",
          "name": "_postId",
          "type": "uint256"
        }
      ],
      "name": "getPostDetails",
      "outputs": [
        {
          "internalType": "address",
          "name": "",
          "type": "address"
        },
        {
          "internalType": "string",
          "name": "",
          "type": "string"
        },
        {
          "internalType": "string",
          "name": "",
          "type": "string"
        },
        {
          "internalType": "uint256",
          "name": "",
          "type": "uint256"
        }
      ],
      "stateMutability": "view",
      "type": "function"
    },
    {
      "inputs": [],
      "name": "postCount",
      "outputs": [
        {
          "internalType": "uint256",
          "name": "",
          "type": "uint256"
        }
      ],
      "stateMutability": "view",
      "type": "function"
    },
    {
      "inputs": [
        {
          "internalType": "uint256",
          "name": "",
          "type": "uint256"
        }
      ],
      "name": "posts",
      "outputs": [
        {
          "internalType": "address",
          "name": "author",
          "type": "address"
        },
        {
          "internalType": "string",
          "name": "username",
          "type": "string"
        },
        {
          "internalType": "string",
          "name": "content",
          "type": "string"
        },
        {
          "internalType": "uint256",
          "name": "totalDonations",
          "type": "uint256"
        }
      ],
      "stateMutability": "view",
      "type": "function"
    }
  ],
  "bytecode": "0x608060405234801561001057600080fd5b50610f0e806100206000396000f3fe60806040526004361061004a5760003560e01c80630b1e7f831461004f57806317906c2e1461008f578063392338f5146100ba5780639fc226f4146100e3578063b68603b614610123575b600080fd5b34801561005b57600080fd5b50610076600480360381019061007191906108e3565b61013f565b60405161008694939291906109ef565b60405180910390f35b34801561009b57600080fd5b506100a461029f565b6040516100b19190610ac2565b60405180910390f35b3480156100c657600080fd5b506100e160048036038101906100dc9190610877565b6102a5565b005b3480156100ef57600080fd5b5061010a600480360381019061010591906108e3565b61041f565b60405161011a94939291906109ef565b60405180910390f35b61013d600480360381019061013891906108e3565b6105e7565b005b60016020528060005260406000206000915090508060000160009054906101000a900473ffffffffffffffffffffffffffffffffffffffff169080600101805461018890610cad565b80601f01602080910402602001604051908101604052809291908181526020018280546101b490610cad565b80156102015780601f106101d657610100808354040283529160200191610201565b820191906000526020600020905b8154815290600101906020018083116101e457829003601f168201915b50505050509080600201805461021690610cad565b80601f016020809104026020016040519081016040528092919081815260200182805461024290610cad565b801561028f5780601f106102645761010080835404028352916020019161028f565b820191906000526020600020905b81548152906001019060200180831161027257829003601f168201915b5050505050908060030154905084565b60005481565b60008251116102e9576040517f08c379a00000000000000000000000000000000000000000000000000000000081526004016102e090610a62565b60405180910390fd5b600081511161032d576040517f08c379a000000000000000000000000000000000000000000000000000000000815260040161032490610aa2565b60405180910390fd5b60008081548092919061033f90610d10565b9190505550600060016000805481526020019081526020016000209050338160000160006101000a81548173ffffffffffffffffffffffffffffffffffffffff021916908373ffffffffffffffffffffffffffffffffffffffff160217905550828160010190805190602001906103b7929190610757565b50818160020190805190602001906103d0929190610757565b50600081600301819055507f5475621b07408f75d49c828caa5aeacb3a5e98d3497e75730dc184677504401c6000543385856040516104129493929190610add565b60405180910390a1505050565b60006060806000808511801561043757506000548511155b610476576040517f08c379a000000000000000000000000000000000000000000000000000000000815260040161046d90610a42565b60405180910390fd5b60006001600087815260200190815260200160002090508060000160009054906101000a900473ffffffffffffffffffffffffffffffffffffffff16816001018260020183600301548280546104cb90610cad565b80601f01602080910402602001604051908101604052809291908181526020018280546104f790610cad565b80156105445780601f1061051957610100808354040283529160200191610544565b820191906000526020600020905b81548152906001019060200180831161052757829003601f168201915b5050505050925081805461055790610cad565b80601f016020809104026020016040519081016040528092919081815260200182805461058390610cad565b80156105d05780601f106105a5576101008083540402835291602001916105d0565b820191906000526020600020905b8154815290600101906020018083116105b357829003601f168201915b505050505091509450945094509450509193509193565b6000811180156105f957506000548111155b610638576040517f08c379a000000000000000000000000000000000000000000000000000000000815260040161062f90610a42565b60405180910390fd5b6000341161067b576040517f08c379a000000000000000000000000000000000000000000000000000000000815260040161067290610a82565b60405180910390fd5b6000600160008381526020019081526020016000209050348160030160008282546106a69190610bd9565b925050819055507f07ed9a4039cc285a25b91d0a6f5601a45e05275001c5ddf74de4f60148c8ee0b8233346040516106e093929190610b30565b60405180910390a18060000160009054906101000a900473ffffffffffffffffffffffffffffffffffffffff1673ffffffffffffffffffffffffffffffffffffffff166108fc349081150290604051600060405180830381858888f19350505050158015610752573d6000803e3d6000fd5b505050565b82805461076390610cad565b90600052602060002090601f01602090048101928261078557600085556107cc565b82601f1061079e57805160ff19168380011785556107cc565b828001600101855582156107cc579182015b828111156107cb5782518255916020019190600101906107b0565b5b5090506107d991906107dd565b5090565b5b808211156107f65760008160009055506001016107de565b5090565b600061080d61080884610b8c565b610b67565b90508281526020810184848401111561082557600080fd5b610830848285610c6b565b509392505050565b600082601f83011261084957600080fd5b81356108598482602086016107fa565b91505092915050565b60008135905061087181610ec1565b92915050565b6000806040838503121561088a57600080fd5b600083013567ffffffffffffffff8111156108a457600080fd5b6108b085828601610838565b925050602083013567ffffffffffffffff8111156108cd57600080fd5b6108d985828601610838565b9150509250929050565b6000602082840312156108f557600080fd5b600061090384828501610862565b91505092915050565b61091581610c2f565b82525050565b600061092682610bbd565b6109308185610bc8565b9350610940818560208601610c7a565b61094981610de6565b840191505092915050565b6000610961600f83610bc8565b915061096c82610df7565b602082019050919050565b6000610984601883610bc8565b915061098f82610e20565b602082019050919050565b60006109a7602683610bc8565b91506109b282610e49565b604082019050919050565b60006109ca601783610bc8565b91506109d582610e98565b602082019050919050565b6109e981610c61565b82525050565b6000608082019050610a04600083018761090c565b8181036020830152610a16818661091b565b90508181036040830152610a2a818561091b565b9050610a3960608301846109e0565b95945050505050565b60006020820190508181036000830152610a5b81610954565b9050919050565b60006020820190508181036000830152610a7b81610977565b9050919050565b60006020820190508181036000830152610a9b8161099a565b9050919050565b60006020820190508181036000830152610abb816109bd565b9050919050565b6000602082019050610ad760008301846109e0565b92915050565b6000608082019050610af260008301876109e0565b610aff602083018661090c565b8181036040830152610b11818561091b565b90508181036060830152610b25818461091b565b905095945050505050565b6000606082019050610b4560008301866109e0565b610b52602083018561090c565b610b5f60408301846109e0565b949350505050565b6000610b71610b82565b9050610b7d8282610cdf565b919050565b6000604051905090565b600067ffffffffffffffff821115610ba757610ba6610db7565b5b610bb082610de6565b9050602081019050919050565b600081519050919050565b600082825260208201905092915050565b6000610be482610c61565b9150610bef83610c61565b9250827fffffffffffffffffffffffffffffffffffffffffffffffffffffffffffffffff03821115610c2457610c23610d59565b5b828201905092915050565b6000610c3a82610c41565b9050919050565b600073ffffffffffffffffffffffffffffffffffffffff82169050919050565b6000819050919050565b82818337600083830152505050565b60005b83811015610c98578082015181840152602081019050610c7d565b83811115610ca7576000848401525b50505050565b60006002820490506001821680610cc557607f821691505b60208210811415610cd957610cd8610d88565b5b50919050565b610ce882610de6565b810181811067ffffffffffffffff82111715610d0757610d06610db7565b5b80604052505050565b6000610d1b82610c61565b91507fffffffffffffffffffffffffffffffffffffffffffffffffffffffffffffffff821415610d4e57610d4d610d59565b5b600182019050919050565b7f4e487b7100000000000000000000000000000000000000000000000000000000600052601160045260246000fd5b7f4e487b7100000000000000000000000000000000000000000000000000000000600052602260045260246000fd5b7f4e487b7100000000000000000000000000000000000000000000000000000000600052604160045260246000fd5b6000601f19601f8301169050919050565b7f496e76616c696420706f73742049440000000000000000000000000000000000600082015250565b7f557365726e616d652063616e6e6f7420626520656d7074790000000000000000600082015250565b7f446f6e6174696f6e20616d6f756e74206d75737420626520677265617465722060008201527f7468616e20300000000000000000000000000000000000000000000000000000602082015250565b7f436f6e74656e742063616e6e6f7420626520656d707479000000000000000000600082015250565b610eca81610c61565b8114610ed557600080fd5b5056fea26469706673582212205af28694976fabce1da507254d982e8ef4f5c72ffc6036fd50d6697c745ca91064736f6c63430008040033",
  "linkReferences": {},
  "deployedLinkReferences": {}
}